{
  "_format": "hh-sol-artifact-1",
  "contractName": "AddressInfo",
  "sourceName": "contracts/AddressInfo.sol",
  "abi": [
    {
      "inputs": [],
      "stateMutability": "nonpayable",
      "type": "constructor"
    },
    {
      "anonymous": false,
      "inputs": [
        {
          "indexed": true,
          "internalType": "address",
          "name": "mediator",
          "type": "address"
        },
        {
          "indexed": false,
          "internalType": "bool",
          "name": "",
          "type": "bool"
        }
      ],
      "name": "MediatorAddition",
      "type": "event"
    },
    {
      "anonymous": false,
      "inputs": [
        {
          "indexed": true,
          "internalType": "address",
          "name": "mediator",
          "type": "address"
        }
      ],
      "name": "MediatorRemoval",
      "type": "event"
    },
    {
      "anonymous": false,
      "inputs": [
        {
          "indexed": true,
          "internalType": "address",
          "name": "previousOwner",
          "type": "address"
        },
        {
          "indexed": true,
          "internalType": "address",
          "name": "newOwner",
          "type": "address"
        }
      ],
      "name": "OwnershipTransferred",
      "type": "event"
    },
    {
      "anonymous": false,
      "inputs": [
        {
          "indexed": true,
          "internalType": "address",
          "name": "validator",
          "type": "address"
        },
        {
          "indexed": false,
          "internalType": "bool",
          "name": "",
          "type": "bool"
        }
      ],
      "name": "ValidatorAddition",
      "type": "event"
    },
    {
      "anonymous": false,
      "inputs": [
        {
          "indexed": true,
          "internalType": "address",
          "name": "validator",
          "type": "address"
        }
      ],
      "name": "ValidatorRemoval",
      "type": "event"
    },
    {
      "inputs": [
        {
          "internalType": "address",
          "name": "mediator",
          "type": "address"
        }
      ],
      "name": "addMediator",
      "outputs": [],
      "stateMutability": "nonpayable",
      "type": "function"
    },
    {
      "inputs": [
        {
          "internalType": "address",
          "name": "validator",
          "type": "address"
        }
      ],
      "name": "addValidator",
      "outputs": [],
      "stateMutability": "nonpayable",
      "type": "function"
    },
    {
      "inputs": [
        {
          "internalType": "address",
          "name": "addr",
          "type": "address"
        }
      ],
      "name": "checkMediator",
      "outputs": [
        {
          "internalType": "bool",
          "name": "",
          "type": "bool"
        }
      ],
      "stateMutability": "view",
      "type": "function"
    },
    {
      "inputs": [
        {
          "internalType": "address",
          "name": "addr",
          "type": "address"
        }
      ],
      "name": "checkValidator",
      "outputs": [
        {
          "internalType": "bool",
          "name": "",
          "type": "bool"
        }
      ],
      "stateMutability": "view",
      "type": "function"
    },
    {
      "inputs": [],
      "name": "getValidators",
      "outputs": [
        {
          "internalType": "address[]",
          "name": "",
          "type": "address[]"
        }
      ],
      "stateMutability": "view",
      "type": "function"
    },
    {
      "inputs": [
        {
          "internalType": "address",
          "name": "",
          "type": "address"
        }
      ],
      "name": "isMediator",
      "outputs": [
        {
          "internalType": "bool",
          "name": "",
          "type": "bool"
        }
      ],
      "stateMutability": "view",
      "type": "function"
    },
    {
      "inputs": [
        {
          "internalType": "address",
          "name": "",
          "type": "address"
        }
      ],
      "name": "isValidator",
      "outputs": [
        {
          "internalType": "bool",
          "name": "",
          "type": "bool"
        }
      ],
      "stateMutability": "view",
      "type": "function"
    },
    {
      "inputs": [
        {
          "internalType": "uint256",
          "name": "",
          "type": "uint256"
        }
      ],
      "name": "mediators",
      "outputs": [
        {
          "internalType": "address",
          "name": "",
          "type": "address"
        }
      ],
      "stateMutability": "view",
      "type": "function"
    },
    {
      "inputs": [],
      "name": "owner",
      "outputs": [
        {
          "internalType": "address",
          "name": "",
          "type": "address"
        }
      ],
      "stateMutability": "view",
      "type": "function"
    },
    {
      "inputs": [
        {
          "internalType": "address",
          "name": "mediator",
          "type": "address"
        }
      ],
      "name": "removeMediator",
      "outputs": [],
      "stateMutability": "nonpayable",
      "type": "function"
    },
    {
      "inputs": [
        {
          "internalType": "address",
          "name": "validator",
          "type": "address"
        }
      ],
      "name": "removeValidator",
      "outputs": [],
      "stateMutability": "nonpayable",
      "type": "function"
    },
    {
      "inputs": [],
      "name": "renounceOwnership",
      "outputs": [],
      "stateMutability": "nonpayable",
      "type": "function"
    },
    {
      "inputs": [
        {
          "internalType": "address",
          "name": "mediator",
          "type": "address"
        },
        {
          "internalType": "address",
          "name": "newMediator",
          "type": "address"
        }
      ],
      "name": "replaceMediator",
      "outputs": [],
      "stateMutability": "nonpayable",
      "type": "function"
    },
    {
      "inputs": [
        {
          "internalType": "address",
          "name": "validator",
          "type": "address"
        },
        {
          "internalType": "address",
          "name": "newValidator",
          "type": "address"
        }
      ],
      "name": "replaceValidator",
      "outputs": [],
      "stateMutability": "nonpayable",
      "type": "function"
    },
    {
      "inputs": [
        {
          "internalType": "bytes4",
          "name": "interfaceId",
          "type": "bytes4"
        }
      ],
      "name": "supportsInterface",
      "outputs": [
        {
          "internalType": "bool",
          "name": "",
          "type": "bool"
        }
      ],
      "stateMutability": "view",
      "type": "function"
    },
    {
      "inputs": [
        {
          "internalType": "address",
          "name": "newOwner",
          "type": "address"
        }
      ],
      "name": "transferOwnership",
      "outputs": [],
      "stateMutability": "nonpayable",
      "type": "function"
    },
    {
      "inputs": [
        {
          "internalType": "uint256",
          "name": "",
          "type": "uint256"
        }
      ],
      "name": "validators",
      "outputs": [
        {
          "internalType": "address",
          "name": "",
          "type": "address"
        }
      ],
      "stateMutability": "view",
      "type": "function"
    }
  ],
  "bytecode": "0x6080806040523461005b5760008054336001600160a01b0319821681178355916001600160a01b03909116907f8be0079c531659141344cd1fd0a4f28419497f9722a3daafe3b4186f6b6457e09080a3610edb90816100618239f35b600080fdfe60806040908082526004918236101561001757600080fd5b600091823560e01c90816301ffc9a714610aee5750806309ebdc4f14610aad57806335aa2e4414610a6b57806340a141ff146109925780634d238c8e146108c957806353149d7214610769578063715018a6146106f8578063797327ae146106d35780638116e5fb146105f5578063889f6b4d146105c75780638da5cb5b146105a2578063a77d252e14610450578063b7ab4db51461033d578063e6764f2514610302578063f2fde38b1461020c578063facd743b146101d15763feb2432a146100e057600080fd5b346101cd5760206003193601126101cd576100f9610c11565b90610102610c42565b6001600160a01b03821691610118831515610c9a565b828452600260205261013060ff838620541615610dbe565b8284526002602052818420600160ff198254161790558454680100000000000000008110156101ba57916101b1602092610191858960017f13fb0f0027fd0ba3bac98de5afe5af2f759bb0e3e43f88607c982d89620b4d3098019055610b8d565b90919082549060031b916001600160a01b03809116831b921b1916179055565b5160018152a280f35b602485604188634e487b7160e01b835252fd5b5080fd5b50346101cd5760206003193601126101cd5760ff816020936001600160a01b036101f9610c11565b1681526001855220541690519015158152f35b5082346102fe5760206003193601126102fe57610227610c11565b90610230610c42565b6001600160a01b038092169283156102955750508254827fffffffffffffffffffffffff00000000000000000000000000000000000000008216178455167f8be0079c531659141344cd1fd0a4f28419497f9722a3daafe3b4186f6b6457e08380a380f35b906020608492519162461bcd60e51b8352820152602660248201527f4f776e61626c653a206e6577206f776e657220697320746865207a65726f206160448201527f64647265737300000000000000000000000000000000000000000000000000006064820152fd5b8280fd5b50346101cd5760206003193601126101cd5760ff816020936001600160a01b0361032a610c11565b1681526002855220541690519015158152f35b50903461044d578060031936011261044d5781518091600354938483528360208094018096600385527fc2575a0e9e593c00f959f8c92f12db2869c3395a3b0502d05e2516446f71f85b90855b8782821061042d575050505003601f017fffffffffffffffffffffffffffffffffffffffffffffffffffffffffffffffe01684019567ffffffffffffffff87118588101761041a575085815282865292518583018190528594938501939290915b8281106103fa57505050500390f35b83516001600160a01b0316855286955093810193928101926001016103eb565b826041602492634e487b7160e01b835252fd5b83546001600160a01b03168552899550909301926001928301920161038a565b80fd5b5091903461044d578260031936011261044d5761046b610c11565b610473610c2c565b9361047c610c42565b6001600160a01b0380921690818452600260205261049f60ff8286205416610e09565b8286169283855260026020526104bb60ff838720541615610dbe565b845b86548110156105725783826104d183610b8d565b90549060031b1c16146104ec576104e790610d7b565b6104bd565b60209496506105229150966101917f13fb0f0027fd0ba3bac98de5afe5af2f759bb0e3e43f88607c982d89620b4d309698610b8d565b8186526002835280862060ff199081815416905585875260018288209182541617905551907eb71be1a3f22ea0bbc63cfde55e7c680b500a4bc52a0eff5e8ce1a2a27baa478680a260018152a280f35b50507f13fb0f0027fd0ba3bac98de5afe5af2f759bb0e3e43f88607c982d89620b4d309395506020929450610522565b50346101cd57816003193601126101cd576001600160a01b0360209254169051908152f35b50346101cd5760206003193601126101cd576020906105ec6105e7610c11565b610e7f565b90519015158152f35b508290346102fe5760206003193601126102fe57610611610c11565b610619610c42565b6001600160a01b0380911691828552600260205261063c60ff8287205416610e09565b8285526002602052842060ff198154169055835b83548110156106ca57828261066483610b8d565b90549060031b1c161461067f5761067a90610d7b565b610650565b6106a492935061068f9150610b8d565b6001600160a01b0382549160031b1b19169055565b7eb71be1a3f22ea0bbc63cfde55e7c680b500a4bc52a0eff5e8ce1a2a27baa478280a280f35b505090506106a4565b50346101cd5760206003193601126101cd576020906105ec6106f3610c11565b610e54565b823461044d578060031936011261044d57610711610c42565b806001600160a01b0381547fffffffffffffffffffffffff000000000000000000000000000000000000000081168355167f8be0079c531659141344cd1fd0a4f28419497f9722a3daafe3b4186f6b6457e08280a380f35b50346101cd57806003193601126101cd57610782610c11565b9061078b610c2c565b610793610c42565b6001600160a01b0380931691828552600191826020526107b860ff8388205416610d30565b84811694858752836020526107d360ff848920541615610ce5565b86845b610851575b505050916020917f704e6c182f127f9fad71c9e345bb66b5cd4e6daab0a1e110332c3534410d5b729382875281845280872060ff1990818154169055868852828289209182541617905551917f6a3ba09e7ab344aeb6790b83cb8c271b874e78a1f400938c91ae9afdb9d494b38780a28152a280f35b600380548210156108c35782879161086884610bda565b9054911b1c1614610885579061087e8592610d7b565b90916107d6565b7f704e6c182f127f9fad71c9e345bb66b5cd4e6daab0a1e110332c3534410d5b7295939150602094926101916108ba92610bda565b919381936107db565b506107db565b508290346102fe5760206003193601126102fe576108e5610c11565b6108ed610c42565b6001600160a01b03811692610903841515610c9a565b838552600160205261091b60ff848720541615610ce5565b8385526001602052828520600160ff19825416179055600354906801000000000000000082101561097f5750916101b16020926101918560017f704e6c182f127f9fad71c9e345bb66b5cd4e6daab0a1e110332c3534410d5b729701600355610bda565b856041602492634e487b7160e01b835252fd5b50346101cd5760206003193601126101cd576109ac610c11565b6109b4610c42565b6001600160a01b0380911690818452600192836020526109d960ff8287205416610d30565b82855283602052842060ff1981541690558284905b610a1c575b84837f6a3ba09e7ab344aeb6790b83cb8c271b874e78a1f400938c91ae9afdb9d494b38280a280f35b60038054821015610a6557828491610a3384610bda565b9054911b1c1614610a4d57610a4790610d7b565b836109ee565b610a5d92935061068f9150610bda565b8083806109f3565b506109f3565b5082346102fe5760206003193601126102fe57359160035483101561044d57506001600160a01b03610a9e602093610bda565b90549060031b1c169051908152f35b50903461044d57602060031936011261044d578235925483101561044d57506001600160a01b03610adf602093610b8d565b92905490519260031b1c168152f35b839085346102fe5760206003193601126102fe57357fffffffff0000000000000000000000000000000000000000000000000000000081168091036102fe57602092507fc008d2aa000000000000000000000000000000000000000000000000000000008114908115610b63575b5015158152f35b7f01ffc9a70000000000000000000000000000000000000000000000000000000091501483610b5c565b600454811015610bc45760046000527f8a35acfbc15ff81a39ae7d344fd709f28e8600b4aa8c65c6b64bfe7fe36bd19b0190600090565b634e487b7160e01b600052603260045260246000fd5b600354811015610bc45760036000527fc2575a0e9e593c00f959f8c92f12db2869c3395a3b0502d05e2516446f71f85b0190600090565b600435906001600160a01b0382168203610c2757565b600080fd5b602435906001600160a01b0382168203610c2757565b6001600160a01b03600054163303610c5657565b606460405162461bcd60e51b815260206004820152602060248201527f4f776e61626c653a2063616c6c6572206973206e6f7420746865206f776e65726044820152fd5b15610ca157565b606460405162461bcd60e51b815260206004820152600f60248201527f61646472657373206973206e756c6c00000000000000000000000000000000006044820152fd5b15610cec57565b606460405162461bcd60e51b815260206004820152601860248201527f76616c696461746f7220616c72656164792065786973747300000000000000006044820152fd5b15610d3757565b606460405162461bcd60e51b815260206004820152601b60248201527f6d73672e73656e646572206973206e6f742076616c696461746f7200000000006044820152fd5b7fffffffffffffffffffffffffffffffffffffffffffffffffffffffffffffffff8114610da85760010190565b634e487b7160e01b600052601160045260246000fd5b15610dc557565b606460405162461bcd60e51b815260206004820152601760248201527f6d65646961746f7220616c7265616479206578697374730000000000000000006044820152fd5b15610e1057565b606460405162461bcd60e51b815260206004820152601a60248201527f6d73672e73656e646572206973206e6f74206d65646961746f720000000000006044820152fd5b6001600160a01b0316600052600160205260ff60406000205416600014610e7a57600190565b600090565b6001600160a01b0316600052600260205260ff60406000205416600014610e7a5760019056fea2646970667358221220d18d9ad9ce180bcb4cc8d4e75009b9642161ab991fa683d35d4add93b2b74ee864736f6c63430008120033",
  "linkReferences": {},
  "deployedLinkReferences": {}
}