{
  "_format": "hh-sol-artifact-1",
  "contractName": "ChaincodeMatchingInfo",
  "sourceName": "contracts/ChaincodeMatchingInfo.sol",
  "abi": [
    {
      "inputs": [
        {
          "internalType": "string",
          "name": "name_",
          "type": "string"
        },
        {
          "internalType": "string",
          "name": "version_",
          "type": "string"
        }
      ],
      "stateMutability": "nonpayable",
      "type": "constructor"
    },
    {
      "inputs": [],
      "name": "InvalidShortString",
      "type": "error"
    },
    {
      "inputs": [
        {
          "internalType": "string",
          "name": "str",
          "type": "string"
        }
      ],
      "name": "StringTooLong",
      "type": "error"
    },
    {
      "anonymous": false,
      "inputs": [
        {
          "indexed": true,
          "internalType": "address",
          "name": "sender",
          "type": "address"
        },
        {
          "indexed": false,
          "internalType": "uint256",
          "name": "value",
          "type": "uint256"
        }
      ],
      "name": "Deposit",
      "type": "event"
    },
    {
      "anonymous": false,
      "inputs": [],
      "name": "EIP712DomainChanged",
      "type": "event"
    },
    {
      "anonymous": false,
      "inputs": [
        {
          "indexed": true,
          "internalType": "address",
          "name": "owner",
          "type": "address"
        },
        {
          "indexed": false,
          "internalType": "bool",
          "name": "",
          "type": "bool"
        }
      ],
      "name": "OwnerAddition",
      "type": "event"
    },
    {
      "anonymous": false,
      "inputs": [
        {
          "indexed": true,
          "internalType": "address",
          "name": "owner",
          "type": "address"
        }
      ],
      "name": "OwnerRemoval",
      "type": "event"
    },
    {
      "inputs": [
        {
          "internalType": "string",
          "name": "chainId",
          "type": "string"
        },
        {
          "internalType": "string",
          "name": "addr",
          "type": "string"
        }
      ],
      "name": "GetMatchingInfo",
      "outputs": [
        {
          "components": [
            {
              "internalType": "string",
              "name": "chainId",
              "type": "string"
            },
            {
              "internalType": "string",
              "name": "addr",
              "type": "string"
            }
          ],
          "internalType": "struct IChaincodeMatchingInfo.MatchingInfo",
          "name": "",
          "type": "tuple"
        }
      ],
      "stateMutability": "view",
      "type": "function"
    },
    {
      "inputs": [
        {
          "internalType": "bytes",
          "name": "",
          "type": "bytes"
        }
      ],
      "name": "MatchingInfoMap",
      "outputs": [
        {
          "internalType": "string",
          "name": "chainId",
          "type": "string"
        },
        {
          "internalType": "string",
          "name": "addr",
          "type": "string"
        }
      ],
      "stateMutability": "view",
      "type": "function"
    },
    {
      "inputs": [
        {
          "internalType": "string",
          "name": "fromChainId",
          "type": "string"
        },
        {
          "internalType": "string",
          "name": "fromAddress",
          "type": "string"
        },
        {
          "internalType": "string",
          "name": "toChainId",
          "type": "string"
        },
        {
          "internalType": "string",
          "name": "toAddress",
          "type": "string"
        },
        {
          "internalType": "uint8",
          "name": "v",
          "type": "uint8"
        },
        {
          "internalType": "bytes32",
          "name": "r",
          "type": "bytes32"
        },
        {
          "internalType": "bytes32",
          "name": "s",
          "type": "bytes32"
        }
      ],
      "name": "SetMatchingInfo",
      "outputs": [],
      "stateMutability": "nonpayable",
      "type": "function"
    },
    {
      "inputs": [
        {
          "internalType": "address",
          "name": "owner",
          "type": "address"
        }
      ],
      "name": "addOwner",
      "outputs": [],
      "stateMutability": "nonpayable",
      "type": "function"
    },
    {
      "inputs": [],
      "name": "admin",
      "outputs": [
        {
          "internalType": "address",
          "name": "",
          "type": "address"
        }
      ],
      "stateMutability": "view",
      "type": "function"
    },
    {
      "inputs": [],
      "name": "eip712Domain",
      "outputs": [
        {
          "internalType": "bytes1",
          "name": "fields",
          "type": "bytes1"
        },
        {
          "internalType": "string",
          "name": "name",
          "type": "string"
        },
        {
          "internalType": "string",
          "name": "version",
          "type": "string"
        },
        {
          "internalType": "uint256",
          "name": "chainId",
          "type": "uint256"
        },
        {
          "internalType": "address",
          "name": "verifyingContract",
          "type": "address"
        },
        {
          "internalType": "bytes32",
          "name": "salt",
          "type": "bytes32"
        },
        {
          "internalType": "uint256[]",
          "name": "extensions",
          "type": "uint256[]"
        }
      ],
      "stateMutability": "view",
      "type": "function"
    },
    {
      "inputs": [
        {
          "internalType": "address",
          "name": "",
          "type": "address"
        }
      ],
      "name": "isOwner",
      "outputs": [
        {
          "internalType": "bool",
          "name": "",
          "type": "bool"
        }
      ],
      "stateMutability": "view",
      "type": "function"
    },
    {
      "inputs": [
        {
          "internalType": "uint256",
          "name": "",
          "type": "uint256"
        }
      ],
      "name": "owners",
      "outputs": [
        {
          "internalType": "address",
          "name": "",
          "type": "address"
        }
      ],
      "stateMutability": "view",
      "type": "function"
    },
    {
      "inputs": [
        {
          "internalType": "address",
          "name": "owner",
          "type": "address"
        }
      ],
      "name": "removeOwner",
      "outputs": [],
      "stateMutability": "nonpayable",
      "type": "function"
    },
    {
      "inputs": [
        {
          "internalType": "address",
          "name": "owner",
          "type": "address"
        },
        {
          "internalType": "address",
          "name": "newOwner",
          "type": "address"
        }
      ],
      "name": "replaceOwner",
      "outputs": [],
      "stateMutability": "nonpayable",
      "type": "function"
    }
  ],
  "bytecode": "0x6101608060405234620001835762001c6a803803809162000021828562000188565b8339810190604081830312620001835780516001600160401b03919082811162000183578362000053918301620001d1565b92602082015183811162000183576200006d9201620001d1565b600180546001600160a01b03191633179055916200008b816200022c565b6101209081526200009c84620003e7565b9161014092835260208151910120938460e0526020815191012093610100948086524660a0526040519060208201927f8b73c3c69bb8fe3d512ecc4cf759cc79239f7b179b0ffacaa9a75d522b39400f8452604083015260608201524660808201523060a082015260a0815260c0810194818610908611176200016d57846040525190206080523060c052611718938462000552853960805184611546015260a05184611601015260c05184611517015260e05184611595015251836115bb01525182610b4801525181610b710152f35b634e487b7160e01b600052604160045260246000fd5b600080fd5b601f909101601f19168101906001600160401b038211908210176200016d57604052565b60005b838110620001c05750506000910152565b8181015183820152602001620001af565b81601f82011215620001835780516001600160401b0381116200016d576040519262000208601f8301601f19166020018562000188565b818452602082840101116200018357620002299160208085019101620001ac565b90565b80516020919082811015620002ac575090601f8251116200026a57808251920151908083106200025b57501790565b82600019910360031b1b161790565b6044906200029e9260405193849263305a27a960e01b845280600485015282519283918260248701528686019101620001ac565b601f01601f19168101030190fd5b6001600160401b0381116200016d576003928354926001938481811c91168015620003dc575b83821014620003c657601f81116200038d575b5081601f841160011462000324575092829391839260009462000318575b50501b9160001990841b1c191617905560ff90565b01519250388062000303565b919083601f1981168760005284600020946000905b8883831062000372575050501062000359575b505050811b01905560ff90565b015160001983861b60f8161c191690553880806200034c565b85870151885590960195948501948793509081019062000339565b8560005284601f84600020920160051c820191601f860160051c015b828110620003b9575050620002e5565b60008155018590620003a9565b634e487b7160e01b600052602260045260246000fd5b90607f1690620002d2565b8051602091908281101562000416575090601f8251116200026a57808251920151908083106200025b57501790565b6001600160401b0381116200016d576004928354926001938481811c9116801562000546575b838210146200053157601f8111620004f8575b5081601f84116001146200048f575092829391839260009462000483575b50501b916000199060031b1c191617905560ff90565b0151925038806200046d565b919083601f1981168760005284600020946000905b88838310620004dd5750505010620004c357505050811b01905560ff90565b015160001960f88460031b161c191690553880806200034c565b858701518855909601959485019487935090810190620004a4565b8560005284601f84600020920160051c820191601f860160051c015b828110620005245750506200044f565b6000815501859062000514565b602286634e487b7160e01b6000525260246000fd5b90607f16906200043c56fe6080604052600436101561001257600080fd5b60003560e01c8063025e7c2714610ef1578063173825d914610e135780632f54bf6e14610dd45780635424d5e414610d1a5780637065cb4814610c5857806384b0196e14610b325780638f5a011414610a00578063ac3c78af14610241578063e20056e6146100b65763f851a4401461008a57600080fd5b346100b15760006003193601126100b15760206001600160a01b0360015416604051908152f35b600080fd5b346100b15760406003193601126100b1576100cf610f7f565b6001600160a01b0360243581811692908381036100b157826001926100f8828554163314611627565b169283600052600060205260ff60406000205416156100b1578460005261012760ff6040600020541615611672565b6000835b6101ac575b857f5a7f87c011fe7f44abaef0adbcd7b0592c00a465495fff5aad2824496b8f6e6f602087878160005260008352604060002060ff19908181541690558560005281604060002091825416179055604051917f8001553a916ef2f495d26a907cc54d96ed840d7bda71e73194bf5a9df7a76b90600080a28152a2005b60025481101561023c5784826101c183610f32565b90549060031b1c16146101e057906101d984926116bd565b909161012b565b60209391507f5a7f87c011fe7f44abaef0adbcd7b0592c00a465495fff5aad2824496b8f6e6f949261021461023492610f32565b90919082549060031b916001600160a01b03809116831b921b1916179055565b918193610130565b610130565b346100b15760e06003193601126100b15760043567ffffffffffffffff81116100b157610272903690600401611150565b60243567ffffffffffffffff81116100b157610292903690600401611150565b9060443567ffffffffffffffff81116100b1576102b3903690600401611150565b909260643567ffffffffffffffff81116100b1576102d5903690600401611150565b93909160843560ff811681036100b15733600052600060205260ff60406000205416156109bc576103e66103ee9161030e368b8d610ff0565b60208151910120610320368688610ff0565b60208151910120610332368a8d610ff0565b60208151910120610344368c8b610ff0565b60208151910120906040519260208401947f80555b6ff804149915d3ca58aee8571df1d4d528272da1197475667ac8712116865260408501526060840152608083015260a082015260a0815261039981610fb1565b5190206103a461150d565b90604051917f190100000000000000000000000000000000000000000000000000000000000083526002830152602282015260c43591604260a435922061147e565b91909161134c565b6001600160a01b0333911603610978576040519761040b89610f95565b610416368689610ff0565b8952610423368786610ff0565b60208a015261046e60208960405161045d83828882820195808a88378201818c858301600081523701600083820152038084520182610fcd565b604051938492839251928391611037565b8101600581520301902098805180519067ffffffffffffffff821161071d576104978c5461105a565b601f8111610934575b50602090601f83116001146108c7576020939291600091836108bc575b50506000198260011b9260031b1c1916178b555b015198895167ffffffffffffffff811161071d576104f2600183015461105a565b9a601f8c11610871575b88999a9b50600098979850602090601f83116001146107fe5760019291600091836107f3575b505060001982841b9260031b1c1916179101555b604051986105438a610f95565b369061054e92610ff0565b8852369061055b92610ff0565b60208701526040519383859460208601978837840191602083016000815237016020810160009052038082526020016105949082610fcd565b604051809281925180926105a792611037565b810160058152036020019020815180519067ffffffffffffffff821161071d576105d1835461105a565b601f81116107ab575b50602090601f831160011461073e57918060209492600194600092610733575b505060001982851b9260031b1c19161781555b0191015190815167ffffffffffffffff811161071d5761062d825461105a565b601f81116106d5575b50602092601f82116001146106745792819293600092610669575b50506000198260011b9260031b1c1916179055600080f35b015190508380610651565b601f198216938360005260206000209160005b8681106106bd57508360019596106106a4575b505050811b019055005b015160001960f88460031b161c1916905583808061069a565b91926020600181928685015181550194019201610687565b826000526020600020601f830160051c81019160208410610713575b601f0160051c01905b8181106107075750610636565b600081556001016106fa565b90915081906106f1565b634e487b7160e01b600052604160045260246000fd5b0151905086806105fa565b90601f198316918460005260206000209260005b8181106107935750926001949192859383602098961061077a575b505050811b01815561060d565b015160001960f88460031b161c1916905586808061076d565b92936020600181928786015181550195019301610752565b836000526020600020601f840160051c810191602085106107e9575b601f0160051c01905b8181106107dd57506105da565b600081556001016107d0565b90915081906107c7565b015190508d80610522565b906001840160005260206000209160005b601f198516811061085657509183916001949383601f198796161061083d575b505050811b01910155610536565b015160001960f88460031b161c191690558d808061082f565b8183015184558c9a506001909301926020928301920161080f565b600183016000526020600020601f830160051c8101602084106108b5575b601f8e5b0160051c820181106108a65750506104fc565b60008155600101601f8e610893565b508061088f565b015190508d806104bd565b908c60005260206000209160005b601f198516811061091c575091839160019383601f19602098971610610903575b505050811b018b556104d1565b015160001960f88460031b161c191690558d80806108f6565b919260206001819286850151815501940192016108d5565b8c6000526020600020601f840160051c810160208510610971575b601f830160051c820181106109655750506104a0565b6000815560010161094f565b508061094f565b606460405162461bcd60e51b815260206004820152601460248201527f7369676e657220213d206d73672e73656e6465720000000000000000000000006044820152fd5b606460405162461bcd60e51b815260206004820152601360248201527f6d73672e73656e64657220213d206f776e6572000000000000000000000000006044820152fd5b346100b15760406003193601126100b15767ffffffffffffffff6004358181116100b157610a32903690600401611150565b90916024359081116100b1576001610b1b610ab56060604096610aa5610a5f610b2e973690600401611150565b9190988a5190610a6e82610f95565b8582528360209b8c9788809501528d5195838794868601998a37840191858301600081523701600083820152038084520182610fcd565b8851938492839251928391611037565b8101600581520301902093610afe865195610acf87610f95565b8751610ae681610adf8185611094565b0382610fcd565b8752610af788518096819301611094565b0384610fcd565b80850192835285519586958287525191860152606085019061112b565b9051601f1984830301604085015261112b565b0390f35b346100b15760006003193601126100b157610b6c7f000000000000000000000000000000000000000000000000000000000000000061117e565b610b957f0000000000000000000000000000000000000000000000000000000000000000611292565b60405160208082019282841067ffffffffffffffff85111761071d579181610c0b8594610bfd9796604052600084526040519788977f0f00000000000000000000000000000000000000000000000000000000000000895260e0858a015260e089019061112b565b90878203604089015261112b565b91466060870152306080870152600060a087015285830360c0870152519182815201929160005b828110610c4157505050500390f35b835185528695509381019392810192600101610c32565b346100b15760206003193601126100b157610c71610f7f565b6001600160a01b03610c8881600154163314611627565b81169081156100b157816000526000602052610cac60ff6040600020541615611672565b8160005260006020526040600020600160ff19825416179055600254906801000000000000000082101561071d57610214826001610ced9401600255610f32565b7f5a7f87c011fe7f44abaef0adbcd7b0592c00a465495fff5aad2824496b8f6e6f602060405160018152a2005b346100b15760206003193601126100b15760043567ffffffffffffffff81116100b157366023820112156100b157610d776020610d64610dc6933690602481600401359101610ff0565b8160405193828580945193849201611037565b81016005815203019020610b2e6001610db260405193610da285610d9b8184611094565b0386610fcd565b610adf6040518094819301611094565b60405193849360408552604085019061112b565b90838203602085015261112b565b346100b15760206003193601126100b1576001600160a01b03610df5610f7f565b166000526000602052602060ff604060002054166040519015158152f35b346100b15760206003193601126100b157610e2c610f7f565b6001600160a01b039081600191610e47828454163314611627565b16918260005260006020526040600020805460ff8116156100b15760ff191690556000825b610e99575b837f8001553a916ef2f495d26a907cc54d96ed840d7bda71e73194bf5a9df7a76b90600080a2005b600254811015610eec578184610eae83610f32565b929054600393841b1c1614610ecd5750610ec7906116bd565b82610e6c565b919250610ed990610f32565b81939154921b1b19169055818080610e71565b610e71565b346100b15760206003193601126100b1576004356002548110156100b1576001600160a01b03610f22602092610f32565b9190546040519260031b1c168152f35b600254811015610f695760026000527f405787fa12a823e0f2b7631cc41b3ba8828b3321ca811111fa75cd3aa3bb5ace0190600090565b634e487b7160e01b600052603260045260246000fd5b600435906001600160a01b03821682036100b157565b6040810190811067ffffffffffffffff82111761071d57604052565b60c0810190811067ffffffffffffffff82111761071d57604052565b90601f601f19910116810190811067ffffffffffffffff82111761071d57604052565b92919267ffffffffffffffff821161071d576040519161101a6020601f19601f8401160184610fcd565b8294818452818301116100b1578281602093846000960137010152565b60005b83811061104a5750506000910152565b818101518382015260200161103a565b90600182811c9216801561108a575b602083101461107457565b634e487b7160e01b600052602260045260246000fd5b91607f1691611069565b90600092918054916110a58361105a565b91828252600193848116908160001461110757506001146110c7575b50505050565b90919394506000526020928360002092846000945b8386106110f35750505050010190388080806110c1565b8054858701830152940193859082016110dc565b915050602094955060ff199193501683830152151560051b010190388080806110c1565b90601f19601f60209361114981518092818752878088019101611037565b0116010190565b9181601f840112156100b15782359167ffffffffffffffff83116100b157602083818601950101116100b157565b60ff81146111d45760ff811690601f82116111aa57604051916111a083610f95565b8252602082015290565b60046040517fb3512b0c000000000000000000000000000000000000000000000000000000008152fd5b506040516003548160006111e78361105a565b808352926001908181169081156112705750600114611211575b5061120e92500382610fcd565b90565b6003600090815291507fc2575a0e9e593c00f959f8c92f12db2869c3395a3b0502d05e2516446f71f85b5b848310611255575061120e935050810160200138611201565b8193509081602092548385890101520191019091849261123c565b6020935061120e95925060ff1991501682840152151560051b82010138611201565b60ff81146112b45760ff811690601f82116111aa57604051916111a083610f95565b506040516004548160006112c78361105a565b8083529260019081811690811561127057506001146112ed575061120e92500382610fcd565b6004600090815291507f8a35acfbc15ff81a39ae7d344fd709f28e8600b4aa8c65c6b64bfe7fe36bd19b5b848310611331575061120e935050810160200138611201565b81935090816020925483858901015201910190918492611318565b6005811015611468578061135d5750565b600181036113a957606460405162461bcd60e51b815260206004820152601860248201527f45434453413a20696e76616c6964207369676e617475726500000000000000006044820152fd5b600281036113f557606460405162461bcd60e51b815260206004820152601f60248201527f45434453413a20696e76616c6964207369676e6174757265206c656e677468006044820152fd5b6003146113fe57565b608460405162461bcd60e51b815260206004820152602260248201527f45434453413a20696e76616c6964207369676e6174757265202773272076616c60448201527f75650000000000000000000000000000000000000000000000000000000000006064820152fd5b634e487b7160e01b600052602160045260246000fd5b9291907f7fffffffffffffffffffffffffffffff5d576e7357a4501ddfe92f46681b20a083116115015791608094939160ff602094604051948552168484015260408301526060820152600093849182805260015afa156114f45781516001600160a01b038116156114ee579190565b50600190565b50604051903d90823e3d90fd5b50505050600090600390565b6001600160a01b037f0000000000000000000000000000000000000000000000000000000000000000163014806115fe575b15611568577f000000000000000000000000000000000000000000000000000000000000000090565b60405160208101907f8b73c3c69bb8fe3d512ecc4cf759cc79239f7b179b0ffacaa9a75d522b39400f82527f000000000000000000000000000000000000000000000000000000000000000060408201527f000000000000000000000000000000000000000000000000000000000000000060608201524660808201523060a082015260a081526115f881610fb1565b51902090565b507f0000000000000000000000000000000000000000000000000000000000000000461461153f565b1561162e57565b606460405162461bcd60e51b815260206004820152601360248201527f6d73672e73656e64657220213d2061646d696e000000000000000000000000006044820152fd5b1561167957565b606460405162461bcd60e51b815260206004820152601460248201527f6f776e657220616c7265616479206578697374730000000000000000000000006044820152fd5b60001981146116cc5760010190565b634e487b7160e01b600052601160045260246000fdfea264697066735822122065ec02f39ac2b69f80faa12f31f9d05d5f71d0882652cb3c304fe6671799aa9364736f6c63430008120033",
  "linkReferences": {},
  "deployedLinkReferences": {}
}