{
  "_format": "hh-sol-artifact-1",
  "contractName": "Validation",
  "sourceName": "contracts/Validation.sol",
  "abi": [
    {
      "inputs": [
        {
          "internalType": "address",
          "name": "addressInfo_",
          "type": "address"
        }
      ],
      "stateMutability": "nonpayable",
      "type": "constructor"
    },
    {
      "anonymous": false,
      "inputs": [
        {
          "indexed": true,
          "internalType": "address",
          "name": "previousOwner",
          "type": "address"
        },
        {
          "indexed": true,
          "internalType": "address",
          "name": "newOwner",
          "type": "address"
        }
      ],
      "name": "OwnershipTransferred",
      "type": "event"
    },
    {
      "inputs": [],
      "name": "_INTERFACE_ID_VALIDATION",
      "outputs": [
        {
          "internalType": "bytes4",
          "name": "",
          "type": "bytes4"
        }
      ],
      "stateMutability": "view",
      "type": "function"
    },
    {
      "inputs": [
        {
          "internalType": "address",
          "name": "addr",
          "type": "address"
        }
      ],
      "name": "isMediator",
      "outputs": [
        {
          "internalType": "bool",
          "name": "",
          "type": "bool"
        }
      ],
      "stateMutability": "view",
      "type": "function"
    },
    {
      "inputs": [
        {
          "internalType": "bytes32",
          "name": "",
          "type": "bytes32"
        }
      ],
      "name": "isTransaction",
      "outputs": [
        {
          "internalType": "bool",
          "name": "",
          "type": "bool"
        }
      ],
      "stateMutability": "view",
      "type": "function"
    },
    {
      "inputs": [],
      "name": "owner",
      "outputs": [
        {
          "internalType": "address",
          "name": "",
          "type": "address"
        }
      ],
      "stateMutability": "view",
      "type": "function"
    },
    {
      "inputs": [
        {
          "internalType": "bytes32",
          "name": "message",
          "type": "bytes32"
        },
        {
          "internalType": "uint8",
          "name": "v",
          "type": "uint8"
        },
        {
          "internalType": "bytes32",
          "name": "r",
          "type": "bytes32"
        },
        {
          "internalType": "bytes32",
          "name": "s",
          "type": "bytes32"
        }
      ],
      "name": "recoverAddress",
      "outputs": [
        {
          "internalType": "address",
          "name": "",
          "type": "address"
        }
      ],
      "stateMutability": "pure",
      "type": "function"
    },
    {
      "inputs": [
        {
          "internalType": "bytes32",
          "name": "hashedData",
          "type": "bytes32"
        },
        {
          "components": [
            {
              "internalType": "uint8",
              "name": "v",
              "type": "uint8"
            },
            {
              "internalType": "bytes32",
              "name": "r",
              "type": "bytes32"
            },
            {
              "internalType": "bytes32",
              "name": "s",
              "type": "bytes32"
            }
          ],
          "internalType": "struct IValidation.Signature[]",
          "name": "signatureArray",
          "type": "tuple[]"
        }
      ],
      "name": "recoverAddressArray",
      "outputs": [
        {
          "internalType": "bool",
          "name": "",
          "type": "bool"
        }
      ],
      "stateMutability": "nonpayable",
      "type": "function"
    },
    {
      "inputs": [],
      "name": "renounceOwnership",
      "outputs": [],
      "stateMutability": "nonpayable",
      "type": "function"
    },
    {
      "inputs": [
        {
          "internalType": "bytes4",
          "name": "interfaceId",
          "type": "bytes4"
        }
      ],
      "name": "supportsInterface",
      "outputs": [
        {
          "internalType": "bool",
          "name": "",
          "type": "bool"
        }
      ],
      "stateMutability": "view",
      "type": "function"
    },
    {
      "inputs": [
        {
          "internalType": "address",
          "name": "newOwner",
          "type": "address"
        }
      ],
      "name": "transferOwnership",
      "outputs": [],
      "stateMutability": "nonpayable",
      "type": "function"
    }
  ],
  "bytecode": "0x6080346100a757601f6109b338819003918201601f19168301916001600160401b038311848410176100ac578084926020946040528339810103126100a757516001600160a01b0390818116908190036100a75760005460018060a01b0319903382821617600055604051933391167f8be0079c531659141344cd1fd0a4f28419497f9722a3daafe3b4186f6b6457e0600080a360015416176001556108f090816100c38239f35b600080fd5b634e487b7160e01b600052604160045260246000fdfe608060408181526004908136101561001657600080fd5b600092833560e01c90816301ffc9a7146104cc57508063715018a61461044e5780638428cf83146103d05780638da5cb5b1461039d5780639697140d14610370578063b860190a146102b9578063b9140ace1461027a578063e6764f251461018d5763f2fde38b1461008757600080fd5b346101895760206003193601126101895781359173ffffffffffffffffffffffffffffffffffffffff91828416809403610185576100c361056b565b831561011c5750508254827fffffffffffffffffffffffff00000000000000000000000000000000000000008216178455167f8be0079c531659141344cd1fd0a4f28419497f9722a3daafe3b4186f6b6457e08380a380f35b906020608492519162461bcd60e51b8352820152602660248201527f4f776e61626c653a206e6577206f776e657220697320746865207a65726f206160448201527f64647265737300000000000000000000000000000000000000000000000000006064820152fd5b8480fd5b8280fd5b509034610189576020928360031936011261027757813573ffffffffffffffffffffffffffffffffffffffff8082168092036101895790829160015416908551878101917f889f6b4d00000000000000000000000000000000000000000000000000000000835260248201526024815261020681610639565b51915afa9061021361066b565b9115610235575080838061022c935183010191016106d4565b90519015158152f35b6064908484519162461bcd60e51b8352820152601860248201527f4661696c656420746f20636865636b206d65646961746f7200000000000000006044820152fd5b80fd5b8382346102b557816003193601126102b557602090517fda3e99ac000000000000000000000000000000000000000000000000000000008152f35b5080fd5b509190346102b557826003193601126102b5578035906024359067ffffffffffffffff93848311610277573660238401121561027757828201359485116102775736602460608702850101116102775785818560ff9352600260205220541661032d5760208561022c8660248601876106f1565b606490602086519162461bcd60e51b8352820152601d60248201527f7472616e73616374696f6e20616c72656164792070726f6365737365640000006044820152fd5b509034610189576020600319360112610189578160209360ff923581526002855220541690519015158152f35b8382346102b557816003193601126102b55773ffffffffffffffffffffffffffffffffffffffff60209254169051908152f35b509034610189576080600319360112610189578260243560ff811681036102b55783519235835260ff16602080840191909152604435604084015260643560608401528180529160809060015afa156104445773ffffffffffffffffffffffffffffffffffffffff60209251915191168152f35b51903d90823e3d90fd5b833461027757806003193601126102775761046761056b565b8073ffffffffffffffffffffffffffffffffffffffff81547fffffffffffffffffffffffff000000000000000000000000000000000000000081168355167f8be0079c531659141344cd1fd0a4f28419497f9722a3daafe3b4186f6b6457e08280a380f35b8490843461018957602060031936011261018957357fffffffff00000000000000000000000000000000000000000000000000000000811680910361018957602092507fda3e99ac000000000000000000000000000000000000000000000000000000008114908115610541575b5015158152f35b7f01ffc9a7000000000000000000000000000000000000000000000000000000009150148361053a565b73ffffffffffffffffffffffffffffffffffffffff60005416330361058c57565b606460405162461bcd60e51b815260206004820152602060248201527f4f776e61626c653a2063616c6c6572206973206e6f7420746865206f776e65726044820152fd5b7fffffffffffffffffffffffffffffffffffffffffffffffffffffffffffffffff81146105fd5760010190565b634e487b7160e01b600052601160045260246000fd5b9190811015610623576060020190565b634e487b7160e01b600052603260045260246000fd5b6060810190811067ffffffffffffffff82111761065557604052565b634e487b7160e01b600052604160045260246000fd5b3d156106cf5767ffffffffffffffff903d82811161065557604051927fffffffffffffffffffffffffffffffffffffffffffffffffffffffffffffffe0603f81601f8501160116840190848210908211176106555760405282523d6000602084013e565b606090565b908160209103126106ec575180151581036106ec5790565b600080fd5b909160008073ffffffffffffffffffffffffffffffffffffffff9460019580875416925b85811061076457505050500361075d5760005260026020526040600020817fffffffffffffffffffffffffffffffffffffffffffffffffffffffffffffff0082541617905590565b5050600090565b61076f818785610613565b3560ff811681036106ec576000879160209182918b6107cc8461079389898d610613565b01358a6107a48a60409a8b93610613565b0135908851948594859094939260ff6060936080840197845216602083015260408201520152565b83805203908d5afa156108af576000516000808451848101907f797327ae00000000000000000000000000000000000000000000000000000000825288602495168582015284815261081d81610639565b51908a5afa9261082b61066b565b931561086d575050908161084592825183010191016106d4565b610858575b610853906105d0565b610715565b93610865610853916105d0565b94905061084a565b60649291601991519262461bcd60e51b845260048401528201527f4661696c656420746f20636865636b2076616c696461746f72000000000000006044820152fd5b50513d6000823e3d90fdfea26469706673582212209d2d3841d1ef44180d60e0b523c90ea9e2927893ac628286a4c909caa2887c9164736f6c63430008120033",
  "linkReferences": {},
  "deployedLinkReferences": {}
}