{
  "_format": "hh-sol-artifact-1",
  "contractName": "Vault",
  "sourceName": "contracts/Vault.sol",
  "abi": [
    {
      "inputs": [
        {
          "internalType": "address",
          "name": "validation_",
          "type": "address"
        }
      ],
      "stateMutability": "nonpayable",
      "type": "constructor"
    },
    {
      "anonymous": false,
      "inputs": [
        {
          "indexed": false,
          "internalType": "string",
          "name": "fromChainId",
          "type": "string"
        },
        {
          "indexed": false,
          "internalType": "address",
          "name": "fromAddress",
          "type": "address"
        },
        {
          "indexed": false,
          "internalType": "address",
          "name": "fromTokenAddr",
          "type": "address"
        },
        {
          "indexed": false,
          "internalType": "string",
          "name": "toChainId",
          "type": "string"
        },
        {
          "indexed": false,
          "internalType": "address",
          "name": "toAddress",
          "type": "address"
        },
        {
          "indexed": false,
          "internalType": "address",
          "name": "toTokenAddr",
          "type": "address"
        },
        {
          "indexed": false,
          "internalType": "uint256",
          "name": "amount",
          "type": "uint256"
        }
      ],
      "name": "Lock",
      "type": "event"
    },
    {
      "anonymous": false,
      "inputs": [
        {
          "indexed": true,
          "internalType": "address",
          "name": "previousOwner",
          "type": "address"
        },
        {
          "indexed": true,
          "internalType": "address",
          "name": "newOwner",
          "type": "address"
        }
      ],
      "name": "OwnershipTransferred",
      "type": "event"
    },
    {
      "anonymous": false,
      "inputs": [
        {
          "indexed": false,
          "internalType": "string",
          "name": "fromChainId",
          "type": "string"
        },
        {
          "indexed": false,
          "internalType": "address",
          "name": "fromAddress",
          "type": "address"
        },
        {
          "indexed": false,
          "internalType": "address",
          "name": "fromTokenAddr",
          "type": "address"
        },
        {
          "indexed": false,
          "internalType": "bytes32",
          "name": "fromTxHash",
          "type": "bytes32"
        },
        {
          "indexed": false,
          "internalType": "string",
          "name": "toChainId",
          "type": "string"
        },
        {
          "indexed": false,
          "internalType": "address",
          "name": "toAddress",
          "type": "address"
        },
        {
          "indexed": false,
          "internalType": "address",
          "name": "toTokenAddr",
          "type": "address"
        },
        {
          "indexed": false,
          "internalType": "uint256",
          "name": "amount",
          "type": "uint256"
        }
      ],
      "name": "Unlock",
      "type": "event"
    },
    {
      "inputs": [
        {
          "internalType": "address",
          "name": "account",
          "type": "address"
        }
      ],
      "name": "balanceOfCoin",
      "outputs": [
        {
          "internalType": "uint256",
          "name": "",
          "type": "uint256"
        }
      ],
      "stateMutability": "view",
      "type": "function"
    },
    {
      "inputs": [
        {
          "internalType": "address",
          "name": "account",
          "type": "address"
        },
        {
          "internalType": "address",
          "name": "tokenContractAddr",
          "type": "address"
        }
      ],
      "name": "balanceOfToken",
      "outputs": [
        {
          "internalType": "uint256",
          "name": "",
          "type": "uint256"
        }
      ],
      "stateMutability": "view",
      "type": "function"
    },
    {
      "inputs": [],
      "name": "contractBalanceOf",
      "outputs": [
        {
          "internalType": "uint256",
          "name": "",
          "type": "uint256"
        }
      ],
      "stateMutability": "view",
      "type": "function"
    },
    {
      "inputs": [],
      "name": "getBlockNumber",
      "outputs": [
        {
          "internalType": "uint256",
          "name": "",
          "type": "uint256"
        }
      ],
      "stateMutability": "view",
      "type": "function"
    },
    {
      "inputs": [
        {
          "internalType": "string",
          "name": "toChain",
          "type": "string"
        },
        {
          "internalType": "address",
          "name": "toAddr",
          "type": "address"
        },
        {
          "internalType": "address",
          "name": "toTokenAddr",
          "type": "address"
        },
        {
          "internalType": "uint256",
          "name": "amount",
          "type": "uint256"
        }
      ],
      "name": "lock",
      "outputs": [],
      "stateMutability": "payable",
      "type": "function"
    },
    {
      "inputs": [],
      "name": "owner",
      "outputs": [
        {
          "internalType": "address",
          "name": "",
          "type": "address"
        }
      ],
      "stateMutability": "view",
      "type": "function"
    },
    {
      "inputs": [],
      "name": "renounceOwnership",
      "outputs": [],
      "stateMutability": "nonpayable",
      "type": "function"
    },
    {
      "inputs": [
        {
          "internalType": "bytes4",
          "name": "interfaceId",
          "type": "bytes4"
        }
      ],
      "name": "supportsInterface",
      "outputs": [
        {
          "internalType": "bool",
          "name": "",
          "type": "bool"
        }
      ],
      "stateMutability": "view",
      "type": "function"
    },
    {
      "inputs": [
        {
          "internalType": "address",
          "name": "newOwner",
          "type": "address"
        }
      ],
      "name": "transferOwnership",
      "outputs": [],
      "stateMutability": "nonpayable",
      "type": "function"
    },
    {
      "inputs": [
        {
          "internalType": "bytes32",
          "name": "fromTxHash",
          "type": "bytes32"
        },
        {
          "internalType": "string",
          "name": "toChain",
          "type": "string"
        },
        {
          "internalType": "address payable",
          "name": "toAddr",
          "type": "address"
        },
        {
          "internalType": "address",
          "name": "toTokenAddr",
          "type": "address"
        },
        {
          "internalType": "uint256",
          "name": "amount",
          "type": "uint256"
        },
        {
          "components": [
            {
              "internalType": "uint8",
              "name": "v",
              "type": "uint8"
            },
            {
              "internalType": "bytes32",
              "name": "r",
              "type": "bytes32"
            },
            {
              "internalType": "bytes32",
              "name": "s",
              "type": "bytes32"
            }
          ],
          "internalType": "struct IValidation.Signature[]",
          "name": "multiSig",
          "type": "tuple[]"
        }
      ],
      "name": "unlock",
      "outputs": [],
      "stateMutability": "nonpayable",
      "type": "function"
    }
  ],
  "bytecode": "0x6080346100a757601f61105e38819003918201601f19168301916001600160401b038311848410176100ac578084926020946040528339810103126100a757516001600160a01b0390818116908190036100a75760005460018060a01b0319903382821617600055604051933391167f8be0079c531659141344cd1fd0a4f28419497f9722a3daafe3b4186f6b6457e0600080a36001541617600155610f9b90816100c38239f35b600080fd5b634e487b7160e01b600052604160045260246000fdfe608080604052600436101561001357600080fd5b60003560e01c90816301ffc9a714610c68575080630eafe47314610c2257806342cbb15c14610c04578063715018a614610b935780638da5cb5b14610b6c578063c9923cf314610563578063f2fde38b14610473578063f59e38b714610421578063f7ade008146104055763f7ec32621461008d57600080fd5b60806003193601126103b75760043567ffffffffffffffff81116103b7576100b9903690600401610d32565b6100c1610d1c565b916044928335936001600160a01b038516908186036103b75760649081358361019457340361015357505093610149917f9dacfc5767b3f96212487611690cc92d72b1f461c2073ce11794e4e723bf04e1953360005260026020526040600020906000526020526040600020610138348254610df3565b905560405194859434933387610e50565b0390a15b43600355005b7f6d73672e7661756c6520646f6573206e6f74206d6174636820616d6f756e74006040519162461bcd60e51b835260206004840152601f6024840152820152fd5b969495929187156103c357604051917fdd62ed3e00000000000000000000000000000000000000000000000000000000835233600484015230602484015260209283818381885afa8015610319578a9160009161038d575b5010610325576040517f23b872dd0000000000000000000000000000000000000000000000000000000081523360048201523060248201528982820152838184816000895af1908115610319576000916102ec575b50156102ab575050916102a393917f9dacfc5767b3f96212487611690cc92d72b1f461c2073ce11794e4e723bf04e197933360005260028152604060002091600052526040600020610294848254610df3565b90556040519586953387610e50565b0390a161014d565b7f746f6b656e207472616e7366657246726f6d206661696c65640000000000000083916040519262461bcd60e51b8452600484015260196024840152820152fd5b61030c9150843d8611610312575b6103048183610db8565b810190610ddb565b38610241565b503d6102fa565b6040513d6000823e3d90fd5b608492917f746f6b656e20616c6c6f77616e6365206d757374206265203e3d20616d6f756e7f7400000000000000000000000000000000000000000000000000000000000000926040519462461bcd60e51b8652600486015260216024860152840152820152fd5b809250858092503d83116103bc575b6103a68183610db8565b810103126103b757899051386101ec565b600080fd5b503d61039c565b907f616d6f756e74206973206c6f776572207468616e2030000000000000000000006040519162461bcd60e51b83526020600484015260166024840152820152fd5b346103b75760006003193601126103b757602047604051908152f35b346103b75760406003193601126103b75761043a610d06565b610442610d1c565b906001600160a01b038091166000526002602052604060002091166000526020526020604060002054604051908152f35b346103b75760206003193601126103b75761048c610d06565b610494610d60565b6001600160a01b038091169081156104f957600054827fffffffffffffffffffffffff0000000000000000000000000000000000000000821617600055167f8be0079c531659141344cd1fd0a4f28419497f9722a3daafe3b4186f6b6457e0600080a3005b608460405162461bcd60e51b815260206004820152602660248201527f4f776e61626c653a206e6577206f776e657220697320746865207a65726f206160448201527f64647265737300000000000000000000000000000000000000000000000000006064820152fd5b346103b75760c06003193601126103b75760243567ffffffffffffffff81116103b757610594903690600401610d32565b6001600160a01b038060443516604435036103b7578060643516606435036103b75767ffffffffffffffff60a435116103b75736602360a4350112156103b75767ffffffffffffffff60a43560040135116103b757366024606060a435600401350260a4350101116103b75780600154166040517fe6764f25000000000000000000000000000000000000000000000000000000008152336004820152602081602481855afa90811561031957600091610b4d575b5015610b09576040519060043560208301527fffffffffffffffffffffffffffffffffffffffff0000000000000000000000008060643560601b16604084015260443560601b1660548301526084356068830152606882528160a081011067ffffffffffffffff60a0840111176108825760a08201604052815160208301207fb860190a0000000000000000000000000000000000000000000000000000000060a084015260e483019060a4840152604060c484015260a4356004013590526101048201602460a435019160005b60a435600401358110610acc5750602092507fffffffffffffffffffffffffffffffffffffffffffffffffffffffffffffff608460a0810193030190600060a08601915af190811561031957600091610a95575b5015610a2b5760643581166108fa5760843547106108b6576000808083819460443516825260026020526040822081606435168352602052604082206107b46084358254610ed1565b905560843590604435165af13d156108b1573d67ffffffffffffffff811161088257604051906107ee6020601f19601f8401160183610db8565b8152600060203d92013e5b1561083e577f5a7ccb47dd5e20e31347e059855ff0798e6661970536fed92b3f06c2e52c30c29161014960405192839260843591604435916004356064353088610ede565b606460405162461bcd60e51b815260206004820152601360248201527f4661696c656420746f2073656e6420436f696e000000000000000000000000006044820152fd5b7f4e487b7100000000000000000000000000000000000000000000000000000000600052604160045260246000fd5b6107f9565b606460405162461bcd60e51b815260206004820152601460248201527f496e73756666696369656e742062616c616e63650000000000000000000000006044820152fd5b916040517fa9059cbb000000000000000000000000000000000000000000000000000000008152836044351660048201526084356024820152602081604481600088606435165af190811561031957600091610a0c575b50156109c857827f5a7ccb47dd5e20e31347e059855ff0798e6661970536fed92b3f06c2e52c30c2936044351660005260026020526040600020906064351660005260205260406000206109a86084358254610ed1565b90556102a360405192839260843591604435916004356064353088610ede565b606460405162461bcd60e51b815260206004820152601560248201527f746f6b656e207472616e73666572206661696c656400000000000000000000006044820152fd5b610a25915060203d602011610312576103048183610db8565b84610951565b608460405162461bcd60e51b815260206004820152602360248201527f766572696669636174696f6e20636f6e646974696f6e7320617265206e6f742060448201527f6d657400000000000000000000000000000000000000000000000000000000006064820152fd5b610abf915060203d602011610ac5575b60a081610ab58293838601610db8565b8301019101610ddb565b8461076b565b503d610aa5565b909183359060ff821682036103b7576060809160ff6001941681526020870135602082015260408701356040820152019401910192919092610717565b606460405162461bcd60e51b815260206004820152601a60248201527f6d73672e73656e646572206973206e6f74206d65646961746f720000000000006044820152fd5b610b66915060203d602011610312576103048183610db8565b85610649565b346103b75760006003193601126103b75760206001600160a01b0360005416604051908152f35b346103b75760006003193601126103b757610bac610d60565b60006001600160a01b0381547fffffffffffffffffffffffff000000000000000000000000000000000000000081168355167f8be0079c531659141344cd1fd0a4f28419497f9722a3daafe3b4186f6b6457e08280a3005b346103b75760006003193601126103b7576020600354604051908152f35b346103b75760206003193601126103b7576001600160a01b03610c43610d06565b1660005260026020526040600020600080526020526020604060002054604051908152f35b346103b75760206003193601126103b757600435907fffffffff0000000000000000000000000000000000000000000000000000000082168092036103b757817fda3e99ac0000000000000000000000000000000000000000000000000000000060209314908115610cdc575b5015158152f35b7f01ffc9a70000000000000000000000000000000000000000000000000000000091501483610cd5565b600435906001600160a01b03821682036103b757565b602435906001600160a01b03821682036103b757565b9181601f840112156103b75782359167ffffffffffffffff83116103b757602083818601950101116103b757565b6001600160a01b03600054163303610d7457565b606460405162461bcd60e51b815260206004820152602060248201527f4f776e61626c653a2063616c6c6572206973206e6f7420746865206f776e65726044820152fd5b90601f601f19910116810190811067ffffffffffffffff82111761088257604052565b908160209103126103b7575180151581036103b75790565b91908201809211610e0057565b7f4e487b7100000000000000000000000000000000000000000000000000000000600052601160045260246000fd5b601f8260209493601f19938186528686013760008582860101520116010190565b929060c094610ebf929897969860e08652610e9960e08701604090600481527f5249474f0000000000000000000000000000000000000000000000000000000060208201520190565b926001600160a01b03958680921660208901521660408701528583036060870152610e2f565b95166080820152600060a08201520152565b91908203918211610e0057565b939460e095610f53939499989799610f286101008089528801604090600481527f5249474f0000000000000000000000000000000000000000000000000000000060208201520190565b936001600160a01b03968780921660208a015216604088015260608701528583036080870152610e2f565b951660a0820152600060c0820152015256fea2646970667358221220f80358943aec882f00b8f31abf4f26e7a40a59870567ed9eb170f47e693cf9a664736f6c63430008120033",
  "linkReferences": {},
  "deployedLinkReferences": {}
}